{"abi":[{"type":"function","name":"emitApiCallProved","inputs":[{"name":"callId","type":"string","internalType":"string"},{"name":"requestHash","type":"string","internalType":"string"},{"name":"responseHash","type":"string","internalType":"string"}],"outputs":[],"stateMutability":"nonpayable"},{"type":"event","name":"ApiCallProved","inputs":[{"name":"callId","type":"string","indexed":true,"internalType":"string"},{"name":"requestHash","type":"string","indexed":false,"internalType":"string"},{"name":"responseHash","type":"string","indexed":false,"internalType":"string"},{"name":"emitter","type":"address","indexed":true,"internalType":"address"}],"anonymous":false}],"bytecode":{"object":"0x6080604052348015600e575f5ffd5b506102e58061001c5f395ff3fe608060405234801561000f575f5ffd5b5060043610610029575f3560e01c80638c2e7a0b1461002d575b5f5ffd5b61004760048036038101906100429190610126565b610049565b005b3373ffffffffffffffffffffffffffffffffffffffff168686604051610070929190610212565b60405180910390207fae39b14560ad47e2da5b6f45792cc7c21afc761402f522cf04bc13b42ad2fdf9868686866040516100ad9493929190610276565b60405180910390a3505050505050565b5f5ffd5b5f5ffd5b5f5ffd5b5f5ffd5b5f5ffd5b5f5f83601f8401126100e6576100e56100c5565b5b8235905067ffffffffffffffff811115610103576101026100c9565b5b60208301915083600182028301111561011f5761011e6100cd565b5b9250929050565b5f5f5f5f5f5f606087890312156101405761013f6100bd565b5b5f87013567ffffffffffffffff81111561015d5761015c6100c1565b5b61016989828a016100d1565b9650965050602087013567ffffffffffffffff81111561018c5761018b6100c1565b5b61019889828a016100d1565b9450945050604087013567ffffffffffffffff8111156101bb576101ba6100c1565b5b6101c789828a016100d1565b92509250509295509295509295565b5f81905092915050565b828183375f83830152505050565b5f6101f983856101d6565b93506102068385846101e0565b82840190509392505050565b5f61021e8284866101ee565b91508190509392505050565b5f82825260208201905092915050565b5f601f19601f8301169050919050565b5f610255838561022a565b93506102628385846101e0565b61026b8361023a565b840190509392505050565b5f6040820190508181035f83015261028f81868861024a565b905081810360208301526102a481848661024a565b90509594505050505056fea264697066735822122086d56581cd14ee77996a67499bb829255f5e45095ac981c1ac799bd66f02c46d64736f6c634300081e0033","linkReferences":{}},"methodIdentifiers":{"emitApiCallProved(string,string,string)":"8c2e7a0b"},"id":0}